:100000000EC01BC01AC019C018C017C016C015C03A
:1000100014C013C012C031C010C00FC00EC01124D4
:100020001FBECFEDCDBF20E0A0E6B0E001C01D9225
:10003000AD39B207E1F797D1A7C1E2CFDC01509605
:100040002D913C91519752969C915297E92FF0E057
:10005000EE0FFF1FEA0FFB1F260F371F4081518154
:10006000241B350B51963C932E93509771836083DC
:100070009F5F977052969C9308951F920F920FB6B0
:100080000F9211242F933F934F935F936F937F931E
:100090008F939F93AF93BF93EF93FF9364B175B129
:1000A0007370809162009091630022B72831E8F369
:1000B000837099278230910581F083309105B1F0EA
:1000C000019711F0C0981AC080916000882319F040
:1000D00087E790E0B3DFC19A11C080916000882368
:1000E00019F084E690E0AADFC19808C08091600012
:1000F000882319F08AE890E0A1DFC09A809162001D
:100100009091630001969093630080936200FF9149
:10011000EF91BF91AF919F918F917F916F915F917F
:100120004F913F912F910F900FBE0F901F901895F8
:10013000C398C2980895C39AC29A0895F8944091BA
:100140006200509163007894A895F8942091620021
:10015000309163007894241B350B28173907A0F3DE
:100160000895FC019C01205F3F4F11921192E2170C
:10017000F307D9F7FC01128A118A108A0895CF93E8
:10018000109260008AE890E0ECDF87E790E0E9DF1A
:1001900084E690E0E6DFF8941CBC82E08ABD13BEE2
:1001A00012BE8CE789BD18BC88E088BF89BF83B7C1
:1001B000826083BFC1E0C7B986EA86B985E083B9AA
:1001C00010926300109262007894B2DFBA9884E0D3
:1001D00090E0B4DFC093600080EA9FE0AFDF109250
:1001E000600082E887B9BA9A409174005091750016
:1001F00080919A0090919B00209187003091880017
:10020000840F951F820F931F21E0843C31E09307F8
:1002100008F420E020936100843C914010F4C4E095
:1002200001C0C2E088DF85E395E088DF81DF85E3F8
:1002300095E084DFC150B1F7CF9108958AE890E04E
:1002400090DF87E790E08DDF84E690E08ADF81E051
:100250008093600082E290E071DFF89480919A00D0
:1002600090919B002091870030918800409174000C
:100270005091750078943F9B0AC0803E65E19607D7
:1002800020F4203E65E13607B8F03F9809C0803C75
:1002900063E0960748F4203C63E0360728F43F9A71
:1002A00083E290E04BDF26C020336BE1360720F07D
:1002B00081336BE1960700F54817590770F5841BE9
:1002C000950BA0E0B0E04217530708F047C0241B8D
:1002D000350BA90160E070E02035310560F184172D
:1002E0009507A607B70790F421E03091610033230A
:1002F00021F11EDFA895B1CFF89480916200909112
:100300006300789491FDF5CF16DFF4CF8091610002
:100310008111FACFC39AC298EDCF42175307D8F490
:10032000241B350BA90160E070E080E090E0DC0167
:1003300020353105C8F620E0D8CF2223D1F2880F2E
:10034000991FAA1FBB1F84179507A607B70788F236
:10035000C398C29ACFCF80E090E0DC0120E040E07B
:1003600050E0BA01C2CFF89484E084BB18BA8FE0A1
:1003700087BB78949DE088E10FB6F894A89581BD7D
:0C0380000FBE91BDFCDE5ADFF894FFCFE9
:00000001FF
